{
    "contractName": "LocalContract",
    "abi": [
        {
            "inputs": [],
            "name": "Funders",
            "outputs": [
                {
                    "components": [
                        {
                            "internalType": "string",
                            "name": "name",
                            "type": "string"
                        },
                        {
                            "internalType": "uint256",
                            "name": "ethDonated",
                            "type": "uint256"
                        }
                    ],
                    "internalType": "struct LocalContract.FUNDERS[]",
                    "name": "",
                    "type": "tuple[]"
                }
            ],
            "stateMutability": "view",
            "type": "function"
        },
        {
            "inputs": [
                {
                    "internalType": "string",
                    "name": "senderName",
                    "type": "string"
                }
            ],
            "name": "PayMe",
            "outputs": [],
            "stateMutability": "payable",
            "type": "function"
        },
        {
            "inputs": [
                {
                    "internalType": "uint256",
                    "name": "",
                    "type": "uint256"
                }
            ],
            "name": "funders",
            "outputs": [
                {
                    "internalType": "string",
                    "name": "name",
                    "type": "string"
                },
                {
                    "internalType": "uint256",
                    "name": "ethDonated",
                    "type": "uint256"
                }
            ],
            "stateMutability": "view",
            "type": "function"
        },
        {
            "inputs": [],
            "name": "whoIsOwner",
            "outputs": [
                {
                    "internalType": "string",
                    "name": "",
                    "type": "string"
                }
            ],
            "stateMutability": "pure",
            "type": "function"
        }
    ],
    "bytecode": "608060405234801561001057600080fd5b50610658806100206000396000f3fe60806040526004361061003f5760003560e01c8063870603b8146100445780639ed492f21461006f5780639ee1bd0f14610084578063dc0d3dff146100b5575b600080fd5b34801561005057600080fd5b506100596100e3565b6040516100669190610347565b60405180910390f35b61008261007d3660046103d3565b6101de565b005b34801561009057600080fd5b506040805180820182526002815261736b60f01b602082015290516100669190610484565b3480156100c157600080fd5b506100d56100d036600461049e565b610245565b6040516100669291906104b7565b60606000805480602002602001604051908101604052809291908181526020016000905b828210156101d5578382906000526020600020906002020160405180604001604052908160008201805461013a906104d9565b80601f0160208091040260200160405190810160405280929190818152602001828054610166906104d9565b80156101b35780601f10610188576101008083540402835291602001916101b3565b820191906000526020600020905b81548152906001019060200180831161019657829003601f168201915b5050505050815260200160018201548152505081526020019060010190610107565b50505050905090565b6040805180820190915281815234602082015260008054600181018255908052815182916002027f290decd9548b62a8d60345a988386fc84ba6bc95484008f6362f93160ef3e563019081906102349082610562565b506020820151816001015550505050565b6000818154811061025557600080fd5b9060005260206000209060020201600091509050806000018054610278906104d9565b80601f01602080910402602001604051908101604052809291908181526020018280546102a4906104d9565b80156102f15780601f106102c6576101008083540402835291602001916102f1565b820191906000526020600020905b8154815290600101906020018083116102d457829003601f168201915b5050505050908060010154905082565b6000815180845260005b818110156103275760208185018101518683018201520161030b565b506000602082860101526020601f19601f83011685010191505092915050565b60006020808301818452808551808352604092508286019150828160051b87010184880160005b838110156103af57888303603f190185528151805187855261039288860182610301565b91890151948901949094529487019492509086019060010161036e565b509098975050505050505050565b634e487b7160e01b600052604160045260246000fd5b6000602082840312156103e557600080fd5b813567ffffffffffffffff808211156103fd57600080fd5b818401915084601f83011261041157600080fd5b813581811115610423576104236103bd565b604051601f8201601f19908116603f0116810190838211818310171561044b5761044b6103bd565b8160405282815287602084870101111561046457600080fd5b826020860160208301376000928101602001929092525095945050505050565b6020815260006104976020830184610301565b9392505050565b6000602082840312156104b057600080fd5b5035919050565b6040815260006104ca6040830185610301565b90508260208301529392505050565b600181811c908216806104ed57607f821691505b60208210810361050d57634e487b7160e01b600052602260045260246000fd5b50919050565b601f82111561055d57600081815260208120601f850160051c8101602086101561053a5750805b601f850160051c820191505b8181101561055957828155600101610546565b5050505b505050565b815167ffffffffffffffff81111561057c5761057c6103bd565b6105908161058a84546104d9565b84610513565b602080601f8311600181146105c557600084156105ad5750858301515b600019600386901b1c1916600185901b178555610559565b600085815260208120601f198616915b828110156105f4578886015182559484019460019091019084016105d5565b50858210156106125787850151600019600388901b60f8161c191681555b5050505050600190811b0190555056fea26469706673582212207376fd00409a68bfa14c49d0cd2d6f12e79a33a5367e37d2e3ae50821492a84464736f6c63430008130033",
    "sourcePath": "d:/Eth SmartContract/localcontract.sol",
    "compiler": {
        "name": "solc",
        "version": "0.8.19+commit.7dd6d404"
    },
    "functionHashes": {
        "Funders()": "870603b8",
        "PayMe(string)": "9ed492f2",
        "funders(uint256)": "dc0d3dff",
        "whoIsOwner()": "9ee1bd0f"
    },
    "gasEstimates": {
        "creation": {
            "codeDepositCost": "324800",
            "executionCost": "362",
            "totalCost": "325162"
        },
        "external": {
            "Funders()": "infinite",
            "PayMe(string)": "infinite",
            "funders(uint256)": "infinite",
            "whoIsOwner()": "infinite"
        }
    }
}